:100000000C949D000C94CC030C94A5030C94C50097
:100010000C94C5000C94C5000C94C5000C94C5004C
:100020000C94C5000C94C5000C94C5000C94C5003C
:100030000C94C5000C94C5000C94C5000C94C5002C
:100040000C945B030C94C5000C94C5000C94C50083
:100050000C94C5000C94C5000C94C5000C94C5000C
:100060000C94C5000C94C5000000000800020100BB
:100070000003040700000000000000007E306D79DE
:10008000335B5F707F7B771F0D3D4F4700000000A3
:100090000000000000000000000000000000000060
:1000A0000000000000000000800180007E306D79BB
:1000B000335B5F707F7B00000000000000771F0D46
:1000C0003D4F4700370000000E00000067000000B1
:1000D00000000000000000000000000800771F0D75
:1000E0003D4F4700370000000E00151D670000005F
:1000F0000000000000000000000000000000000000
:10010000250028002B0000000000240027002A0002
:1001100004040404040404040202020202020303AD
:1001200003030303010204081020408001020408B5
:100130001020010204081020C20611241FBECFEFB8
:10014000D8E0DEBFCDBF11E0A0E0B1E0ECE8F1E126
:1001500002C005900D92A231B107D9F721E0A2E1CA
:10016000B1E001C01D92A438B207E1F710E0CDE97B
:10017000D0E004C02197FE010E94BE08CC39D1070F
:10018000C9F70E94F3030C94C4080C94000090E09B
:10019000FC01EC5DFE4F2491FC01E05FFE4F849179
:1001A000882399F090E0880F991FFC01EA5FFE4FC9
:1001B000A591B491FC01E450FF4F859194918FB7C4
:1001C000F894EC91E22BEC938FBF089580E4809338
:1001D0007C0080917A00806480937A0080917A001C
:1001E00086FDFCCF809178002091790090E0922BE1
:1001F0000895F89489B18C708C3021F580911201AA
:10020000882329F1809126018150809326018091D5
:100210002801909129010197909329018093280149
:1002200080912801909129018436910534F484E667
:1002300090E090932901809328011092130110926D
:10024000120105C0843019F481E080931301789481
:100250000895F89489B18C708C3021F58091130148
:10026000882329F1809126018F5F80932601809158
:1002700028019091290101969093290180932801EA
:1002800080912801909129018139914034F080E9D1
:1002900091E090932901809328011092130110920C
:1002A000120105C0883019F481E08093120178941E
:1002B000089590E0FC01E859FF4F2491FC01EC5DAA
:1002C000FE4F3491FC01E05FFE4FE491EE2309F410
:1002D0003CC0222339F1233091F038F42130A9F0C9
:1002E000223001F584B58F7D12C0273091F028307F
:1002F000A1F02430B9F4809180008F7D03C08091FB
:1003000080008F77809380000DC084B58F7784BD87
:1003100009C08091B0008F7703C08091B0008F7DBD
:100320008093B000F0E0EE0FFF1FE450FF4FA59167
:10033000B4919FB7F894611104C08C913095382323
:1003400002C0EC913E2B3C939FBF0895CF93DF9367
:10035000EC0186E00E94C700209711F460E004C021
:10036000CF3FD10531F461E086E0DF91CF910C946D
:100370005901EEE6F0E0E491E330F9F048F4E130C1
:10038000B9F0E230A1F584B5806284BDC8BD34C047
:10039000E730E9F0E83019F1E43049F58091800068
:1003A000806280938000D0938B00C0938A0024C029
:1003B00084B5806884BDC7BD1FC0809180008068FF
:1003C00080938000D0938900C093880015C08091ED
:1003D000B00080688093B000C093B3000DC08091DE
:1003E000B00080628093B000C093B40005C0C038F4
:1003F000D1050CF0B8CFB2CFDF91CF9108953FB7C0
:10040000F8948091190190911A01A0911B01B0916B
:100410001C0126B5A89B05C02F3F19F00196A11D10
:10042000B11D3FBFBA2FA92F982F8827820F911D8A
:10043000A11DB11DBC01CD0143E0660F771F881FD0
:10044000991F4A95D1F708958F929F92AF92BF92CC
:10045000CF92DF92EF92FF926B017C010E94FF012D
:100460004B015C01C114D104E104F104F1F00E94DC
:10047000FF01DC01CB0188199909AA09BB09883E53
:100480009340A105B10570F321E0C21AD108E1083B
:10049000F10888EE880E83E0981EA11CB11CC114DF
:1004A000D104E104F10419F7DDCFFF90EF90DF9064
:1004B000CF90BF90AF909F908F9008950895AF9286
:1004C000BF92CF92DF92EF92FF920F931F93CF9341
:1004D000DF9300D0CDB7DEB769834A83880F991FB9
:1004E0000091820110918301000F111FECE2F1E0F5
:1004F0009F012C5231402017310714F41192F8CF8C
:100500002981FC01E45DFE4F21838A81808360E0C4
:10051000809180010E9459011016110634F5015096
:100520001109F801E45DFE4FC080B0907E01A090FB
:100530007C0187E0E82EF12CD12CB6010E2C02C0F4
:10054000759567950A94E2F761708A2D0E945901AA
:1005500061E08B2D0E94590160E08B2D0E945901B2
:1005600081E0E81AF10848F7D7CF61E08091800177
:100570000F900F90DF91CF911F910F91FF90EF900F
:10058000DF90CF90BF90AF900C945901EF92FF9203
:100590000F931F93CF937C018C0183E0000F111FF9
:1005A0008A95E1F7045C1E4FC1E0F80111928F01BA
:1005B00040E06C2FC7010E945F02CF5FC930A9F7EE
:1005C000CF911F910F91FF90EF900895209182019C
:1005D0003091830112161306C4F488309105A8F4F3
:1005E00067FD60E2E62FF0E0E458FF4FE49141112F
:1005F000E068DC01A45DBE4F5096EC9361E0680FAB
:100600004E2F80E090E00C945F020895CF93DF932B
:100610009C018A3091051CF4D82FC0E00DC06AE01F
:1006200070E00E948A08D22F8AE0689FD0191124B6
:10063000233631051CF4C62F60E010C0C90164E602
:1006400070E00E948A08362F822F94E6699F8019F5
:1006500011246AE00E947C08C82F632F40E087E0E5
:1006600090E00E94E60240E06C2F86E090E00E945D
:10067000E60240E06D2F85E090E0DF91CF910C9491
:10068000E60280912801909129010C940603CF93F2
:1006900081E090E00E943507C82F82E090E00E9440
:1006A00035072C2F30E0322F2227A901480F511D8A
:1006B000CA01CF9108951F920F920FB60F92112485
:1006C0002F933F938F939F93AF93BF938091150187
:1006D00090911601A0911701B09118013091140169
:1006E00026E0230F2D3720F40296A11DB11D05C071
:1006F00029E8230F0396A11DB11D209314018093B7
:10070000150190931601A0931701B09318018091E1
:10071000190190911A01A0911B01B0911C01019641
:10072000A11DB11D8093190190931A01A0931B0183
:10073000B0931C01BF91AF919F918F913F912F91E9
:100740000F900FBE0F901F9018951F920F920FB62B
:100750000F9211242F933F934F935F936F937F9347
:100760008F939F93AF93BF93EF93FF93E0910F010C
:10077000F09110010995FF91EF91BF91AF919F9179
:100780008F917F916F915F914F913F912F910F903A
:100790000FBE0F901F9018951F920F920FB60F92D9
:1007A00011242F933F934F935F936F937F938F9376
:1007B0009F93AF93BF93EF93FF93E0910D01F0915F
:1007C0000E010995FF91EF91BF91AF919F918F918C
:1007D0007F916F915F914F913F912F910F900FBE3D
:1007E0000F901F901895789484B5826084BD84B56D
:1007F000816084BD85B5826085BD85B5816085BD1C
:1008000080916E00816080936E00109281008091D3
:10081000810082608093810080918100816080935B
:100820008100809180008160809380008091B10080
:1008300084608093B1008091B00081608093B000AB
:1008400080917A00846080937A0080917A0082603F
:1008500080937A0080917A008E7F80937A008091D5
:100860007A00806880937A001092C10089EF90E04E
:1008700090930E0180930D018091690083608093B5
:100880006900E89A89E291E09093100180930F014A
:10089000809169008C6080936900E99A10922A0126
:1008A00080E090E00E94A6010E94470390932901F6
:1008B0008093280180912801909129018436910527
:1008C00034F484E690E0909329018093280180918C
:1008D0002801909129018139914034F080E991E01B
:1008E0009093290180932801809182019091830146
:1008F0001816190634F441E06CE080E090E00E94A4
:100900005F0280918201909183011816190634F4D8
:1009100048E06AE080E090E00E945F0280918201FE
:10092000909183011816190624F480E090E00E944B
:10093000C60240E068E683E090E00E94E60240E004
:1009400065E682E090E00E94E60240E06CE681E02D
:1009500090E00E94E60240E060E380E090E00E94C8
:10096000E60268EE73E080E090E00E9424020E94BC
:10097000E6009093200180931F0160911F01709108
:100980002001072E000C880B990B0E9483072CE591
:100990003FE842E85FE30E94E7070E944B0770933D
:1009A0001E0160931D0180912801909129010E94F0
:1009B000060340E060E280E090E00E94E60241E051
:1009C00060E283E090E00E94E60241E060E282E0C3
:1009D00090E00E94E60241E060E281E090E00E9447
:1009E000E60280911D0190911E01893C91051CF049
:1009F00084E690E009C080911D0190911E0185362A
:100A000091052CF080EA90E00E94A60111C080912F
:100A10001D0190911E018536910554F48EEF90E0F2
:100A20000E94A60168EB7BE080E090E00E94240237
:100A300060ED77E080E090E00E94240240E060E218
:100A400081E090E00E94E60240E060E282E090E017
:100A50000E94E60240E060E283E090E00E94E6024D
:100A60002AEFE22EF12C3AE0332EC6E9D0E040E93D
:100A7000C42EDD24D3945EE5A52EBB24B3946CE292
:100A8000862E9924939488EC482E512C90E0692E60
:100A900090E0792E80E090E00E94A60110922B0158
:100AA00080912A018F5F8B301CF480932A0125C02E
:100AB00010922A010E9447032091280130912901B8
:100AC00082179307D1F00091280110912901612F1D
:100AD00081E090E00E943D07602F82E090E00E945C
:100AE0003D0740E06CE684E090E00E94E60268EE9C
:100AF00073E080E090E00E94240240E060E284E045
:100B000090E00E94E60280912601909127019817BB
:100B100021F0809327010E944103109225018091CA
:100B200025018A3071F04C9908C0309225018091DE
:100B30002B018F5F80932B01F2CF8F5F8093250174
:100B4000EECF80912B01882331F08FE19EE4019755
:100B5000F1F700C000004C9978C080912801909175
:100B60002901863991050CF441C0809128019091AA
:100B700029018639910564F080912801909129011D
:100B8000883C91052CF4509229014092280132C0F2
:100B90008091280190912901883C91050CF0C6C0F4
:100BA00080912801909129018A3F91050CF0CBC0DA
:100BB00080912801909129018C32914044F08091DC
:100BC0002801909129018E3591400CF4D6C0809176
:100BD0002801909129018E3591400CF0C1C080917F
:100BE0002801909129018039914021F4D093290165
:100BF000C09328010E9441036CED75E080E090E015
:100C00000E9424024C9B02C0789489C07894809101
:100C1000280190912901C29690932901809328017F
:100C200080912801909129018139914024F0D0933D
:100C30002901C09328010E94410360E273E080E033
:100C400090E00E942402F894DDCF0E94E600909389
:100C50002401809323016AE070E080E090E00E942C
:100C600024020E94E60090932201809321012091AA
:100C7000230130912401809121019091220182175A
:100C800093072CF4809121019091220104C080915E
:100C90002301909124019093200180931F01609182
:100CA0001F0170912001072E000C880B990B0E94E8
:100CB00083072CE53FE842E85FE30E94E7070E94D4
:100CC0004B0770931E0160931D0120911D0130910F
:100CD0001E01809128019091290128173907CCF431
:100CE00041E060E284E090E00E94E6028091280109
:100CF0009091290120911D0130911E01821B930BBF
:100D00000F971CF486E990E002C08EEF90E00E94FD
:100D1000A60168EE73E080E090E00E942402611476
:100D2000710409F4B7CE0E940000ADCE8091280175
:100D3000909129018A3F91050CF032CFF092290160
:100D4000E092280157CF80912801909129018C329F
:100D500091400CF02DCF90922901809228014ACF2A
:100D60008091280190912901803991400CF037CF72
:100D7000D0922901C09228013DCFB0922901A092C2
:100D8000280138CFCF93DF93CCE0D0E0D0937D0122
:100D9000C0937C018BE090E090937F0180937E0173
:100DA0008AE090E0909381018093800181E090E05F
:100DB00090938301809382018CE00E94C700809110
:100DC0007E010E94C700809180010E94C70061E0FF
:100DD000809180010E945901D0937D01C0937C01D4
:100DE000ECE3F1E0119281E0EC37F807D9F7C0E0CD
:100DF000D0E08091820190918301C817D90794F5C2
:100E000040E06FE0CE010E945F02D7FD0CC08091F0
:100E1000820190918301C817D9072CF447E06BE059
:100E2000CE010E945F0240E069E0CE010E945F02B5
:100E3000D7FD16C08091820190918301C817D90710
:100E40001CF4CE010E94C602809182019091830120
:100E5000C817D9072CF440E06CE0CE010E945F0275
:100E60002196C7CFDF91CF910895F999FECF92BD1A
:100E700081BDF89A992780B50895262FF999FECF5C
:100E80001FBA92BD81BD20BD0FB6F894FA9AF99AA7
:100E90000FBE019608950E9452076894B1110C94F8
:100EA000E10708950E94C60788F09F5798F0B92F70
:100EB0009927B751B0F0E1F0660F771F881F991F8F
:100EC0001AF0BA95C9F714C0B13091F00E94E0074A
:100ED000B1E008950C94E007672F782F8827B85F5A
:100EE00039F0B93FCCF3869577956795B395D9F7E7
:100EF0003EF490958095709561957F4F8F4F9F4FF1
:100F00000895E89409C097FB3EF4909580957095FC
:100F100061957F4F8F4F9F4F9923A9F0F92F96E945
:100F2000BB279395F695879577956795B795F111BA
:100F3000F8CFFAF4BB0F11F460FF1BC06F5F7F4F57
:100F40008F4F9F4F16C0882311F096E911C0772369
:100F500021F09EE8872F762F05C0662371F096E872
:100F6000862F70E060E02AF09A95660F771F881F41
:100F7000DAF7880F9695879597F9089557FD905859
:100F8000440F551F59F05F3F71F04795880F97FB4D
:100F9000991F61F09F3F79F0879508951216130607
:100FA0001406551FF2CF4695F1DF08C01616170636
:100FB0001806991FF1CF869571056105089408956B
:100FC000E894BB2766277727CB0197F908950E94FD
:100FD000FA070C946B080E945D0838F00E946408C0
:100FE00020F0952311F00C9454080C945A08112405
:100FF0000C94E1070E94BE0770F3959FC1F3950F13
:1010000050E0551F629FF001729FBB27F00DB11D8C
:10101000639FAA27F00DB11DAA1F649F6627B00D1C
:10102000A11D661F829F2227B00DA11D621F739F05
:10103000B00DA11D621F839FA00D611D221F749F13
:101040003327A00D611D231F849F600D211D822F5A
:10105000762F6A2F11249F5750409AF0F1F0882381
:101060004AF0EE0FFF1FBB1F661F771F881F9150AE
:101070005040A9F79E3F510580F00C9454080C9401
:10108000E1075F3FE4F3983ED4F386957795679543
:10109000B795F795E7959F5FC1F7FE2B880F911DD8
:1010A0009695879597F9089597F99F6780E870E07E
:1010B00060E008959FEF80EC089500240A941616CE
:1010C000170618060906089500240A941216130636
:1010D000140605060895092E0394000C11F48823C4
:1010E00052F0BB0F40F4BF2B11F460FF04C06F5FE0
:1010F0007F4F8F4F9F4F089587FB082E062687FD51
:10110000819567FD61950E949E080EF4919507FCFC
:101110008195089597FB072E16F4009407D077FD6C
:1011200009D00E94AA0807FC05D03EF4909581954D
:101130009F4F0895709561957F4F0895991B79E0B1
:1011400004C0991F961708F0961B881F7A95C9F757
:1011500080950895AA1BBB1B51E107C0AA1FBB1FA6
:10116000A617B70710F0A61BB70B881F991F5A9533
:10117000A9F780959095BC01CD010895EE0FFF1F52
:0C1180000590F491E02D0994F894FFCF45
:10118C004D617A612066612074657874005E025E40
:02119C0002004F
:00000001FF
