:1000000080C069C58FC5A2C0A1C0A0C09FC09EC04E
:100010009DC0AFC59BC09AC099C098C097C096C0FC
:1000200095C094C093C07E306D79335B5F707F7BE9
:10003000771F0D3D4F47000000000000000000004A
:1000400000000000000000000000000000000000B0
:100050000000800180007E306D79335B5F707F7BB4
:1000600000000000000000771F0D3D4F47003700E3
:1000700000000E000000670000000000000000000B
:1000800000000000000800771F0D3D4F47003700BB
:1000900000000E00151D67000000000000000000B9
:1000A000000000000000000000000000000000044C
:1000B000050700000000000000000000000102042D
:1000C00008102040800102040810200102040810DA
:1000D00020408040040404040404040402020202D8
:1000E00002020303030303030202030000000038BB
:1000F00000350032000000000037003400310000FD
:10010000D20311241FBECFE5D4E0DEBFCDBF10E087
:10011000A0E6B0E0EEEFF1E102C005900D92A63648
:10012000B107D9F720E0A6E6B0E001C01D92A93DD5
:10013000B207E1F710E0C1E8D0E003C02197FE016B
:1001400041D8C038D107D1F7D0D657C859CFF89485
:1001500080B38C70809373008C3029F58091770088
:100160008823F9F08091750081508093750080910B
:1001700068009091690001979093690080936800EE
:1001800080916800909169008436910534F484E68A
:1001900090E090936900809368001092760010922E
:1001A0007700789408958430E1F781E080937600B9
:1001B000F8CFF89480B38C70809373008C3029F55D
:1001C000809176008823F9F0809175008F5F80938D
:1001D0007500809168009091690001969093690084
:1001E0008093680080916800909169008139914006
:1001F00034F080E991E09093690080936800109258
:10020000760010927700789408958830E1F781E0C5
:1002100080937700F8CF0F93CF93DF93FC01362FB5
:10022000D82FC0E08A3091055CF06AE070E097D783
:1002300086EF689FD00D1124E336F10504F5C62F33
:1002400020E000E0313049F547E050E070E060E048
:1002500088E790E0F6D32C2F46E050E070E060E0B5
:1002600088E790E0EED32D2F45E050E070E060E0AD
:1002700088E790E0E6D3DF91CF910F910895CF0109
:1002800064E670E06CD7262F8E2F9CE9699F800D65
:1002900011246AE057D7C82FD4CF43E050E070E074
:1002A00060E088E790E0CDD32C2F42E050E070E092
:1002B00060E088E790E0C5D32D2F41E050E0D6CF35
:1002C000809168009091690061E0A5CFCF93C82F1D
:1002D000692F81E090E084D76C2F82E090E0CF918D
:1002E0007FC7CF9381E090E073D7C82F82E090E082
:1002F0006FD72C2F30E0322F2227820F932F911DA2
:10030000CF9108950F9343E050E067EA70E080E0FA
:10031000C3D343E050E069ED70E081E0BDD31092BB
:10032000700070E060E086E0F8D4DBDF9093690055
:1003300080936800809168009091690084369105EF
:1003400034F484E690E09093690080936800809193
:100350006800909169008139914034F080E991E022
:10036000909369008093680040E070E060E088E767
:1003700090E086D248E050E070E060E088E790E0EE
:10038000A1D270E060E088E790E0ADD200E028E61E
:1003900043E050E070E060E088E790E052D325E66B
:1003A00042E050E070E060E088E790E04AD32CE65D
:1003B00041E050E070E060E088E790E042D320E365
:1003C00050E040E070E060E088E790E03AD368EE0B
:1003D00073E080E090E03DD480E08AD490936F0099
:1003E00080936E0060916E0070916F00072E000C7C
:1003F000880B990BB8D52CE53FE842E85FE317D6A8
:100400007FD570936700609366008091680090913B
:10041000690061E000DF20E250E040E070E060E071
:1004200088E790E00ED301E020E243E050E070E086
:1004300060E088E790E005D320E242E050E070E021
:1004400060E088E790E0FDD220E241E050E070E01B
:1004500060E088E790E0F5D28091660090916700B7
:1004600064E670E0893C91054CF4809166009091BF
:1004700067008536910524F160EA70E086E04DD48E
:1004800060ED77E080E090E0E4D300E020E241E03E
:1004900050E070E060E088E790E0D3D220E242E0F4
:1004A00050E070E060E088E790E0CBD220E243E0EB
:1004B00050E070E060E088E790E0C3D20F910895CB
:1004C000809166009091670085369105CCF66EEFBD
:1004D00070E086E022D468EB7BE080E090E0B9D366
:1004E000CFCF0F93CF93DF9370E060E086E015D419
:1004F00010927100809170008F5F8B302CF580938B
:10050000700000E020E244E050E070E060E088E746
:1005100090E097D28091750090917400981719F02F
:1005200080937400CDDE109272002AE090917200E8
:10053000809171009A3051F1849924C02093720007
:100540008F5F80937100F2CF10927000CADE20910D
:100550006800309169002817390799F28091680086
:1005600090916900B3DE00E02CE644E050E070E0DA
:1005700060E088E790E065D268EE73E080E090E0AC
:1005800068D3BFCF9F5F90937200D0CF882331F0A4
:100590008FE19EE40197F1F700C00000849997C0B5
:1005A0008091680090916900863991051CF486E974
:1005B00090E010C0809168009091690086399105A3
:1005C00074F08091680090916900883C91053CF43A
:1005D00088EC90E090936900809368002BC0809134
:1005E000680090916900883C91053CF0809168001A
:1005F000909169008A3F910564F180916800909123
:1006000069008A3F910544F58091680090916900E6
:100610008C3291405CF580916800909169008E3534
:10062000914074F580916800909169008039914003
:1006300009F4BDCF45DE6CED75E080E090E009D3B4
:10064000C6E9D0E0849B26C07894DF91CF910F91CA
:1006500008958AEF90E0BECF809168009091690084
:100660008C3291408CF68CE291E0B4CF809168009E
:10067000909169008E35914074F68EE591E0AACF95
:100680008091680090916900803991405CF680E922
:1006900091E0A0CF78948091680090916900C29613
:1006A0009093690080936800809168009091690040
:1006B0008139914024F0D0936900C093680000DE36
:1006C00060E273E080E090E0C4D2F894BBCF80E0B9
:1006D0000FD390936D0080936C006AE070E080E02F
:1006E00090E0B7D280E004D390936B0080936A00CF
:1006F00020916C0030916D0080916A0090916B00A8
:10070000821793070CF049C080916A0090916B00AA
:1007100090936F0080936E0060916E0070916F00F7
:10072000072E000C880B990B1ED42CE53FE842E8FD
:100730005FE37DD4E5D370936700609366002091FA
:1007400066003091670080916800909169002817D9
:100750003907DCF401E020E244E050E070E060E0C2
:1007600088E790E06ED180916800909169002091B7
:10077000660030916700821B930B66E970E00F976B
:1007800014F06EEF70E086E0C8D268EE73E080E0AF
:1007900090E0DF91CF910F915CC280916C009091BD
:1007A0006D00B6CF0F931F9301E010E02AE030E018
:1007B0004BE050E06CE070E088E790E0C7D01F911C
:1007C0000F9108958F929F92AF92BF92CF92DF9236
:1007D000EF92FF920F931F93CF93DF9300D0CDB78B
:1007E000DEB78C0149832A83660F771FF801EA5A26
:1007F000FF4FE080F180EE0CFF1CF801CF01801B61
:10080000910B8E159F0514F41192F8CF8981F80190
:10081000E60FF71F81838A818083680184E5C80E13
:10082000D11C60E0F6018081FCD24801F2E58F0E18
:10083000911C580180E5A80EB11C1E141F0474F40D
:10084000E1E0EE1AF108F801EE0DFF1D208141E014
:10085000F4016081F501808111D3EFCF61E0F601F1
:1008600080810F900F90DF91CF911F910F91FF909A
:10087000EF90DF90CF90BF90AF909F908F90D1C2BC
:1008800077FD0EC0FC01EA5AFF4F208131816217CB
:10089000730734F420E0411101C021E04CE092CF15
:1008A000089577FD0EC0FC01EA5AFF4F2081318187
:1008B0006217730734F44830510518F4242F4BE0C5
:1008C00081CF089577FD0EC0FC01EA5AFF4F2081C9
:1008D00031816217730734F44031510518F4242F25
:1008E0004AE070CF0895DF92EF92FF920F931F932B
:1008F000CF93DF9377FD22C0FC01EA5AFF4F20819E
:10090000318162177307D4F4EB017C018B0183E022
:10091000000F111F8A95E1F7005F1F4F0E0D1F1D7D
:10092000DD24D394F80111928F0120E04D2DBE01FA
:10093000C70148DFD394F9E0DF12F4CFDF91CF9104
:100940001F910F91FF90EF90DF9008956F927F922B
:100950008F929F92AF92BF92CF92DF92EF92FF92CF
:100960000F931F93CF93DF93EC01D62EC72E7C01FC
:1009700080E5E80EF11CF701608371833E01F2E52A
:100980006F0E711CF301518340834E01F4E58F0E0D
:10099000911CF40131832083C8010197089710F05E
:1009A00008E010E05E01F6E5AF0EB11CF501118321
:1009B000008361E08D2DF9D161E0F3018081F5D1F3
:1009C00061E0F4018081F1D161E0F401808129D2FC
:1009D000F701D082C182FE0170961192EE15FF05DB
:1009E000E1F710E000E0F501808191810817190717
:1009F000CCF420E04FE0B801CE01E4DE47E050E067
:100A0000B801CE014EDF20E049E0B801CE01DADEC8
:100A1000B801CE0168DF41E0B801CE0131DF0F5FE0
:100A20001F4FE1CFDF91CF911F910F91FF90EF907A
:100A3000DF90CF90BF90AF909F908F907F906F90FE
:100A400008950F93E22F77FD24C0DC01AA5ABF4F0F
:100A50002D913C9162177307E4F448305105C8F4B6
:100A6000DB0123E0AA0FBB1F2A95E1F7E7FDE0E2D7
:100A70000E2E000CFF0BEA5DFF4F24910111206840
:100A8000A80FB91FA40FB51F50962C934F5F0F915D
:100A900099CE0F9108950895823088F4E82FF0E000
:100AA000EE0FFF1FE05AFF4F71836083813041F0EA
:100AB00085B78C7F482B45BF8BB780648BBF08956B
:100AC00085B7837F440F551F440F551F482B45BFE3
:100AD0008BB78068F3CF1F920F920FB60F9211243D
:100AE0002F933F934F935F936F937F938F939F9336
:100AF000AF93BF93EF93FF93E0916000F09161009B
:100B00000995FF91EF91BF91AF919F918F917F9147
:100B10006F915F914F913F912F910F900FBE0F906A
:100B20001F9018951F920F920FB60F9211242F93BA
:100B30003F934F935F936F937F938F939F93AF9365
:100B4000BF93EF93FF93E0916200F09163000995EA
:100B5000FF91EF91BF91AF919F918F917F916F9195
:100B60005F914F913F912F910F900FBE0F901F906B
:100B700018951F920F920FB60F9211242F933F9347
:100B80008F939F93AF93BF938091D5009091D600A0
:100B9000A091D700B091D8003091D40026E0230F67
:100BA0002D3768F129E8230F0396A11DB11D20936D
:100BB000D4008093D5009093D600A093D700B09333
:100BC000D8008091D0009091D100A091D200B09136
:100BD000D3000196A11DB11D8093D0009093D10048
:100BE000A093D200B093D300BF91AF919F918F910A
:100BF0003F912F910F900FBE0F901F901895029666
:100C0000A11DB11DD4CF3FB7F8948091D000909131
:100C1000D100A091D200B091D30022B708B600FE57
:100C200005C02F3F19F00196A11DB11D3FBFBA2F7E
:100C3000A92F982F8827BC01CD01620F711D811D3E
:100C4000911D43E0660F771F881F991F4A95D1F7C2
:100C500008958F929F92AF92BF92CF92DF92EF92C0
:100C6000FF926B017C01CFDF4B015C01C114D10409
:100C7000E104F104D9F043D1C6DF681979098A0982
:100C80009B09683E73408105910580F321E0C21AFB
:100C9000D108E108F10888EE880E83E0981EA11CB7
:100CA000B11CC114D104E104F10431F7FF90EF90BD
:100CB000DF90CF90BF90AF909F908F9008957894E1
:100CC00083B7836083BF89B7816089BF82E08EBDAF
:100CD0008EB581608EBD8FB581608FBD85B5846016
:100CE00085BD85B5806485BD86E886B91AB8089546
:100CF000883020F08D3008F48DE08E502091640013
:100D000090E4299F900111248770822B87B9369A2D
:100D10003699FECF84B195B108951F93CF93DF9399
:100D2000182FEB0161E041D0209731F460E0812F72
:100D3000DF91CF911F9175C0CF3FD10511F461E0D4
:100D4000F6CFE12FF0E0EA55FF4FE491E53069F08E
:100D5000E73089F0E430A1F48FB580688FBDDBBD4A
:100D6000CABDDF91CF911F9108958FB580628FBD6D
:100D7000D9BDC8BDF6CF85B5806285BDC3BDF1CFF5
:100D8000C038D105E4F6D2CF853041F0873049F044
:100D9000843051F48FB58F778FBD08958FB58F7DD7
:100DA000FBCF85B58F7D85BD0895CF93DF9390E010
:100DB000FC01E354FF4F24918C529F4FFC0184911E
:100DC0008823C9F090E0880F991FFC01EB50FF4F7A
:100DD000A591B491FC01E551FF4FC591D4916111EA
:100DE0000DC09FB7F8948C91209582238C938881B5
:100DF000282328839FBFDF91CF910895623051F45B
:100E00009FB7F8943C91822F809583238C93E8813F
:100E10002E2BEFCF8FB7F894EC912E2B2C938FBF06
:100E2000EACF1F93CF93DF93282F30E0F901EA55E3
:100E3000FF4F8491F901E354FF4FD491F901EC5233
:100E4000FF4FC491CC23A1F0162F81119DDFEC2F11
:100E5000F0E0EE0FFF1FE551FF4FA591B4918FB762
:100E6000F894EC91111108C0D095DE23DC938FBF6C
:100E7000DF91CF911F910895DE2BF8CFBF92CF92D3
:100E8000DF92EF92FF920F931F93CF93DF93C82EC1
:100E9000D62EB42ED0E0C0E0022F10E087E0E82E7E
:100EA000F12CB8018C2FBB2019F0C7018C1B9D0BB6
:100EB00002C0759567958A95E2F761708C2DB1DF58
:100EC00061E08D2DAEDF60E08D2DABDF2196C83067
:100ED000D10539F7DF91CF911F910F91FF90EF90DE
:100EE000DF90CF90BF9008950895E9DEFDDF0ADA24
:100EF000C0E0D0E0F6DA2097E9F382D8FBCF08957E
:100F000004D06894B1118DC0089570D088F09F57B7
:100F100090F0B92F9927B751A0F0D1F0660F771F45
:100F2000881F991F1AF0BA95C9F712C0B13081F025
:100F300077D0B1E0089574C0672F782F8827B85F05
:100F400039F0B93FCCF3869577956795B395D9F786
:100F50003EF490958095709561957F4F8F4F9F4F90
:100F60000895E89409C097FB3EF49095809570959C
:100F700061957F4F8F4F9F4F9923A9F0F92F96E9E5
:100F8000BB279395F695879577956795B795F1115A
:100F9000F8CFFAF4BB0F11F460FF1BC06F5F7F4FF7
:100FA0008F4F9F4F16C0882311F096E911C0772309
:100FB00021F09EE8872F762F05C0662371F096E812
:100FC000862F70E060E02AF09A95660F771F881FE1
:100FD000DAF7880F9695879597F9089557FD9058F9
:100FE000440F551F59F05F3F71F04795880F97FBED
:100FF000991F61F09F3F79F08795089512161306A7
:101000001406551FF2CF4695F1DF08C016161706D5
:101010001806991FF1CF869571056105089408950A
:10102000E894BB2766277727CB0197F908950BD063
:1010300078C069D028F06ED018F0952309F05AC016
:101040005FC01124EECFCADFA0F3959FD1F3950FB7
:1010500050E0551F629FF001729FBB27F00DB11D3C
:10106000639FAA27F00DB11DAA1F649F6627B00DCC
:10107000A11D661F829F2227B00DA11D621F739FB5
:10108000B00DA11D621F839FA00D611D221F749FC3
:101090003327A00D611D231F849F600D211D822F0A
:1010A000762F6A2F11249F5750408AF0E1F0882351
:1010B0004AF0EE0FFF1FBB1F661F771F881F91505E
:1010C0005040A9F79E3F510570F014C0AACF5F3F72
:1010D000ECF3983EDCF3869577956795B795F79591
:1010E000E7959F5FC1F7FE2B880F911D9695879519
:1010F00097F9089597F99F6780E870E060E0089598
:101100009FEF80EC089500240A941616170618061F
:101110000906089500240A941216130614060506FB
:101120000895092E0394000C11F4882352F0BB0F8C
:1011300040F4BF2B11F460FF04C06F5F7F4F8F4FEF
:101140009F4F089587FB082E062687FD819567FD32
:10115000619518D00EF4919507FC8195089597FB41
:10116000072E16F4009406D077FD08D017D007FCA0
:1011700005D03EF4909581959F4F089570956195A7
:101180007F4F0895991B79E004C0991F961708F0C6
:10119000961B881F7A95C9F780950895AA1BBB1BDB
:1011A00051E107C0AA1FBB1FA617B70710F0A61B67
:1011B000B70B881F991F5A95A9F780959095BC0188
:1011C000CD010895EE0FFF1F0590F491E02D0994D5
:1011D000E199FECF9FBB8EBBE09A99278DB308950E
:1011E000262FE199FECF9FBB8EBB2DBB0FB6F89487
:0E11F000E29AE19A0FBE01960895F894FFCF9F
:0611FE004B05000001009A
:00000001FF
